:100000000C9461000C947E000C947E000C947E0095
:100010000C947E000C947E000C947E000C947E0068
:100020000C947E000C947E000C947E000C947E0058
:100030000C947E000C947E000C94EB000C947E00DB
:100040000C947E000C947E000C947E000C947E0038
:100050000C947E000C94C6000C947E000C947E00E0
:100060000C947E000C947E0008000000BE9224498F
:10007000123EABAAAA2ABECDCCCC4C3E00000080DA
:10008000BEABAAAAAA3E00000000BF000000803F4D
:100090000000000000084178D3BB4387D1133D190D
:1000A0000E3CC3BD4282AD2B3E68EC8276BED98F3A
:1000B000E1A93E4C80EFFFBE01C4FF7F3F0000007E
:1000C000000011241FBECFEFD8E0DEBFCDBF12E08D
:1000D000A0E0B1E0E0EBF2E202C005900D92A6369E
:1000E000B107D9F712E0A6E6B2E001C01D92AD3D1E
:1000F000B107E1F70E9442020C9456110C940000E3
:10010000249A239A539A0895ECE7F0E080818F7B3C
:10011000808380818F7780838DE880937A00EEE7FB
:10012000F0E0808183608083089585B5856085BD1A
:10013000EEE6F0E08081826080838CE987BD0895DF
:1001400084B1866084B9E0E8F0E01082A1E8B0E014
:100150001C9210928500109284008FEF9FEF909375
:1001600087008093860087ED9AE0909389008093C2
:1001700088008081806880838081826080838C9108
:1001800088618C938C9182608C9308951F920F925A
:100190000FB60F9211248F939F93EF93FF9380914B
:1001A00078009091790090936F0280936E0281E0C5
:1001B00090E090936D0280936C02EAE7F0E080811A
:1001C00080648083FF91EF919F918F910F900FBE7C
:1001D0000F901F9018951F920F920FB60F92112437
:1001E0008F939F9316BC81E090E090936B02809375
:1001F0006A029F918F910F900FBE0F901F901895DC
:10020000AF92BF92CF92DF92EF92FF920F931F9324
:100210008091700290917102009759F487ED9AE0F5
:100220009093890080938800109267021092660272
:1002300017C00197A9F487ED9AE090938900809305
:100240008800809166029091670201969093670200
:10025000809366020E94070380E091E00E94C20240
:100260008091660290916702885E934060F0809171
:10027000700290917102019731F482E090E09093C6
:10028000710280937002C0907002D090710282E07F
:10029000C816D10491F46091500170915101809180
:1002A0005201909153010E9408092CEC3BE0261B5F
:1002B000370B3093890020938800E0905001F09034
:1002C0005101009152011091530122E0C216D10454
:1002D00009F059C060E070EC8CE395E4A801970147
:1002E0000E9446065B016C0120E030E74DE255E4D8
:1002F0000E944A08882384F08091680290916902E4
:10030000883791054CF4C801B7012DEC3CEC4CEC5E
:100310005DE30E94770619C0C601B50120E030EC0C
:100320004CE355E40E947A081816BCF080916802EC
:10033000909169028937910584F0C801B7012DECCD
:100340003CEC4CEC5DE30E944606609350017093D8
:100350005101809352019093530183E091E00E94F8
:10036000C2026091500170915101809152019091AF
:1003700053010E940809DC01CB010E94070380E0C1
:1003800091E00E94C2021F910F91FF90EF90DF90C9
:10039000CF90BF90AF9008958091700290917102BC
:1003A000892B41F48BE191E00E94C20280E091E050
:1003B0000E94C2028091700290917102019741F4F3
:1003C0008FE191E00E94C20280E091E00E94C202AF
:1003D0008091700290917102029741F48AE291E05B
:1003E0000E94C20280E091E00E94C20208958091C2
:1003F0006A0290916B02892B41F00E94CC010E940D
:10040000000110926B0210926A0208959093B30259
:100410008093B20282E792E00E94610390936902A6
:100420008093680283E391E00E94C2028091680297
:10043000909169020E94070380E091E00E94C2024D
:1004400020916802309169022431310584F0809155
:10045000700290917102892B39F481E090E09093C1
:1004600071028093700208952531310554F4809112
:10047000700290917102892B21F0109271021092FA
:10048000700208958F929F92AF92BF92CF92DF92A7
:10049000EF92FF920F931F93F8940E9480000E94A6
:1004A000A00085B5856085BD80916E0082608093D7
:1004B0006E008CE987BD0E9484000E94AE02789491
:1004C0008FE391E00E94C20280917A008064809361
:1004D0007A00209A289A85E090E0909373028093A6
:1004E000720200D000D08AE097EDA3E2BCE3EDB742
:1004F000FEB781839283A383B48384EB92E041E0CF
:1005000050E060E070E000E010E020E030E0CC245B
:10051000DD247601E8E78E2E912CA12CB12C0E94CF
:10052000E10381E090E090937102809370020F905C
:100530000F900F900F9080916C0290916D02892B1B
:1005400051F080916E0290916F020E94060210920B
:100550006D0210926C020E94F701EDCF1092C5005F
:1005600083E38093C40088E18093C1008EE0809390
:10057000C2000895982F8091C00085FFFCCF909312
:10058000C6000895FC0190818091C00085FFFCCFDA
:100590009093C60031969923B1F70895EF92FF9298
:1005A0000F931F938C01B801882777FD8095982FB2
:1005B0000E94AA080E94490D0E940809DC01CB0193
:1005C00004960E94200CF82EE92E00D000D000D016
:1005D000EDB7FEB73196ADB7BEB711968C93918348
:1005E00084E591E093838283158304830E94250D23
:1005F0008DB79EB706960FB6F8949EBF0FBE8DBFFF
:100600008F2D9E2D1F910F91FF90EF900895CF9207
:10061000DF92EF92FF920F931F93CF93DF938C01A2
:10062000B801882777FD8095982F0E94AA080E941C
:10063000490D0E9408097B0182E090E0E80EF91E56
:10064000C70102960E94200CD92EC82FD92FC82E80
:1006500000D000D000D0EDB7FEB73196ADB7BEB731
:1006600011968C93918384E591E093838283158323
:1006700004830E94250D20E030E08DB79EB70696DA
:100680000FB6F8949EBF0FBE8DBF0CC0FE01E20FE7
:10069000F31FE0818091C00085FFFCCFE093C6008E
:1006A0002F5F3F4F2E153F058CF3C6010E94CD0CE6
:1006B000DF91CF911F910F91FF90EF90DF90CF903E
:1006C0000895AF92BF92CF92DF92EF92FF920F9375
:1006D0001F93CF93DF93DC01DE962D913C91DF9742
:1006E0008D919C9111972817390730F42F5F3F4F58
:1006F000DF963C932E93DE97A05CBF4F8D919C912B
:100700001197A054B04013969C938E9312978D919D
:100710009C9111979C0121503040F901EE0FFF1F71
:10072000EA0FFB1F0AC02115310521F0808191815C
:100730009383828321503040329737FFF4CFDE9687
:10074000AD90BC90DF976D01C0E0D0E00F2EF0E0DF
:10075000EF2EF0E0FF2EF0E00F2FF0E01F2FF02D36
:1007600010C0F6016081718180E090E00E945C0918
:100770009B01AC01C801B7010E9477067B018C0187
:10078000219682E090E0C80ED91ECA15DB0548F319
:10079000B50180E090E00E945C099B01AC01C801BA
:1007A000B7010E949E070E940809CB01DF91CF91FB
:1007B0001F910F91FF90EF90DF90CF90BF90AF907F
:1007C00008958F929F92AF92BF92CF92DF92EF9255
:1007D000FF920F931F93DF93CF93CDB7DEB7FC014A
:1007E00084869586A686B786408B518B628B738BE9
:1007F000048B158B268B378BC08ED18EE28EF38EB9
:100800008F859889A989BA89848F958FA68FB78F8C
:1008100010A211A212A213A281E084A3CF91DF91B2
:100820001F910F91FF90EF90DF90CF90BF90AF900E
:100830009F908F9008952F923F924F925F926F9268
:100840007F928F929F92AF92BF92CF92DF92EF9260
:10085000FF920F931F93DF93CF93CDB7DEB72F9700
:100860000FB6F894DEBF0FBECDBF9F878E87DC0129
:1008700094968C919497882361F414968D919D9110
:100880000D90BC91A02DEE85FF8580879187A28772
:10089000B387AE85BF854D935D936D937C9313971E
:1008A0001C96AD90BD90CD90DC901F97A41AB50A10
:1008B000C60AD70AFD01A482B582C682D782E0A00B
:1008C000F1A002A113A1648C758C868C978CF4A185
:1008D000F983FF2329F01A861B861C861D861AC001
:1008E000EE85FF8580859185A285B385A60195015A
:1008F000281B390B4A0B5B0BCA01B9010E94AA08DD
:10090000A40193010E949E070E9408096A877B87C1
:100910008C879D87AE85BF8550968D919D910D905A
:10092000BC91A02D8E839F83A887B987EE85FF8514
:100930002488358846885788208D318D428D538D87
:100940002A833B834C835D83B981B11114A2C80112
:10095000B7010E94AA087B018C01C601B5010E9463
:10096000AA089B01AC01C401B3010E94A4069B012B
:10097000AC01C801B7010E9477060E940809A201D4
:1009800091010E94CA0B7B018C01C601B5012E8129
:100990003F81488559850E94CA0BE60EF71E081F45
:1009A000191F6A857B858C859D852A813B814C81B9
:1009B0005D810E94CA0BE60EF71E081F191FB701C2
:1009C000C8012F960FB6F894DEBF0FBECDBFCF91F2
:1009D000DF911F910F91FF90EF90DF90CF90BF902C
:1009E000AF909F908F907F906F905F904F903F90CF
:1009F0002F900895A0E0B0E0E0E0F5E00C94E90B62
:100A0000DC012B01FA019C91923008F439C1EB0111
:100A10008881823008F433C1943069F4843009F05D
:100A20002FC111969C9111978981981709F428C1BB
:100A3000A7E5B1E025C1843009F421C18230A9F4D1
:100A4000923009F01DC19A01AD0188E0EA010990D8
:100A5000AE01E90109929E018150C1F7E20189814D
:100A600011969C918923818308C1923009F407C1B2
:100A700012962D903C901397EB018A819B811496DE
:100A8000AD90BD90CD90DC901797EC80FD800E81ED
:100A90001F819101281B390BB90137FF04C066275C
:100AA0007727621B730B603271050CF061C0121660
:100AB00013066CF537014801062E04C096948794FE
:100AC000779467940A94D2F721E030E040E050E058
:100AD00004C0220F331F441F551F6A95D2F72150BF
:100AE0003040404050402E213F21402351232115CA
:100AF00031054105510521F021E030E040E050E0B2
:100B000079018A01E628F728082919293CC0232BF6
:100B1000D1F1260E371E35014601062E04C09694EB
:100B20008794779467940A94D2F721E030E040E00C
:100B300050E004C0220F331F441F551F6A95D2F79F
:100B400021503040404050402A213B214C215D2122
:100B5000211531054105510521F021E030E040E04B
:100B600050E059016A01A628B728C828D9280BC027
:100B7000821593052CF01C01AA24BB24650103C037
:100B8000EE24FF24870111969C91D20111968C913D
:100B9000981709F445C0992339F0A80197012A193B
:100BA0003B094C095D0906C0A60195012E193F09B4
:100BB000400B510B57FD08C01182338222822483DF
:100BC0003583468357831DC081E08183338222822F
:100BD00088279927DC01821B930BA40BB50B848318
:100BE0009583A683B7830DC0220F331F441F551F63
:100BF000248335834683578382819381019793832E
:100C000082832481358146815781DA01C9010197A8
:100C1000A109B1098F5F9F4FAF4FBF4328F30BC0AE
:100C2000918333822282EA0CFB1C0C1D1D1DE48281
:100C3000F5820683178383E0808324813581468192
:100C4000578157FF1AC0C901AA2797FDA095BA2F4F
:100C500081709070A070B070569547953795279524
:100C6000822B932BA42BB52B84839583A683B783E8
:100C700082819381019693838283DF0101C0D20137
:100C8000CD01CDB7DEB7E2E10C94050CA0E2B0E0F7
:100C9000ECE4F6E00C94F50B69837A838B839C83F8
:100CA0002D833E834F835887E9E0EE2EF12CEC0E26
:100CB000FD1ECE010196B7010E94F90A8E010F5E5A
:100CC0001F4FCE010596B8010E94F90A8A8991E06A
:100CD00089278A8BC701B801AE01475E5F4F0E942A
:100CE000FA040E94240AA096E6E00C94110CA0E2FB
:100CF000B0E0EDE7F6E00C94F50B69837A838B8323
:100D00009C832D833E834F835887F9E0EF2EF12C8F
:100D1000EC0EFD1ECE010196B7010E94F90A8E016C
:100D20000F5E1F4FCE010596B8010E94F90AC70158
:100D3000B801AE01475E5F4F0E94FA040E94240A88
:100D4000A096E6E00C94110CA0E2B0E0EAEAF6E02E
:100D50000C94E90B69837A838B839C832D833E8378
:100D60004F835887CE010196BE01675F7F4F0E9477
:100D7000F90ACE010596BE016F5E7F4F0E94F90A07
:100D80009985923088F089898230C8F0943019F4BE
:100D9000823051F404C0843029F4923081F487E524
:100DA00091E0C6C0923049F420E09A858A89981370
:100DB00021E02A87CE010996BBC0823049F420E0A9
:100DC0009A858A89981321E02A8BCE014196B0C07A
:100DD0002D843E844F8458886D887E888F88988CB7
:100DE000EE24FF248701AA24BB24650140E050E0E3
:100DF00060E070E0E0E0F0E0C10181709070892B6C
:100E0000E9F0E60CF71C081D191D9A01AB012A0D2B
:100E10003B1D4C1D5D1D80E090E0A0E0B0E0E614BD
:100E2000F7040805190520F481E090E0A0E0B0E0A7
:100E3000BA01A901480F591F6A1F7B1FAA0CBB1CCE
:100E4000CC1CDD1C97FE08C081E090E0A0E0B0E083
:100E5000A82AB92ACA2ADB2A3196E032F10549F0DC
:100E6000660C771C881C991C5694479437942794D9
:100E7000C3CFFA85EA892B893C898B859C85280F0D
:100E8000391F2E5F3F4F17C0CA0181709070892BA8
:100E900061F016950795F794E79480E090E0A0E064
:100EA000B0E8E82AF92A0A2B1B2B76956795579507
:100EB00047952F5F3F4F77FDE7CF0CC0440F551F7D
:100EC000661F771F17FD4160EE0CFF1C001F111FEE
:100ED00021503040403090E0590790E0690790E49D
:100EE000790760F32B8F3C8FDB01CA018F779070FD
:100EF000A070B07080349105A105B10561F447FD83
:100F00000AC0E114F1040105110529F0405C5F4FAE
:100F10006F4F7F4F40781A8EFE1711F081E08A8F55
:100F20004D8F5E8F6F8F78A383E0898FCE014996B6
:100F30000E94240AA096E2E10C94050CA8E1B0E01E
:100F4000E4EAF7E00C94F10B69837A838B839C834A
:100F50002D833E834F835887B9E0EB2EF12CEC0EA6
:100F6000FD1ECE010196B7010E94F90A8E010F5EA7
:100F70001F4FCE010596B8010E94F90A298522303B
:100F800008F47EC03989323010F4B8017CC08A85FB
:100F90009A8989278A87243011F0223031F4231767
:100FA00009F06EC067E571E06EC0343039F41D861B
:100FB0001E861F86188A1C861B8604C0323021F4C8
:100FC00084E08987B7015FC02B853C858B899C892C
:100FD000281B390B3C872B87ED84FE840F851889ED
:100FE000AD88BE88CF88D88CEA14FB040C051D059B
:100FF00040F4EE0CFF1C001F111F215030403C87B5
:101000002B8720E030E040E050E080E090E0A0E07E
:10101000B0E460E070E0EA14FB040C051D0540F04C
:10102000282B392B4A2B5B2BEA18FB080C091D09CE
:10103000B695A79597958795EE0CFF1C001F111F7D
:101040006F5F7F4F6F31710531F7DA01C9018F771B
:101050009070A070B07080349105A105B10561F465
:1010600027FD0AC0E114F1040105110529F0205CF7
:101070003F4F4F4F5F4F20782D873E874F87588BCC
:10108000BE01675F7F4FCB010E94240A6896EAE0A9
:101090000C940D0CA8E1B0E0E0E5F8E00C94F50B41
:1010A00069837A838B839C832D833E834F83588708
:1010B00089E0E82EF12CEC0EFD1ECE010196B70161
:1010C0000E94F90A8E010F5E1F4FCE010596B801EE
:1010D0000E94F90A8985823040F08989823028F09F
:1010E000C701B8010E94710B01C08FEF6896E6E05E
:1010F0000C94110CA8E1B0E0E0E8F8E00C94F50BDA
:1011000069837A838B839C832D833E834F835887A7
:1011100089E0E82EF12CEC0EFD1ECE010196B70100
:101120000E94F90A8E010F5E1F4FCE010596B8018D
:101130000E94F90A8985823040F08989823028F03E
:10114000C701B8010E94710B01C081E06896E6E01A
:101150000C94110CA8E0B0E0E0EBF8E00C94F20B7A
:101160009B01AC0183E08983DA01C9018827B7FDBF
:1011700083959927AA27BB27B82E2115310541054C
:10118000510519F482E089833AC08823A9F0203000
:1011900080E0380780E0480780E8580729F460E0DD
:1011A00070E080E09FEC30C0EE24FF248701E21A5B
:1011B000F30A040B150B02C079018A018EE1C82ED7
:1011C000D12CDC82CB82ED82FE820F831887C8018E
:1011D000B7010E94D50901971816190684F4082E44
:1011E00004C0EE0CFF1C001F111F0A94D2F7ED8201
:1011F000FE820F831887C81AD90ADC82CB82BA8292
:10120000CE0101960E94240A2896E9E00C940E0C67
:10121000ACE0B0E0EEE0F9E00C94F90B69837A837E
:101220008B839C83CE010196BE016B5F7F4F0E9432
:10123000F90A8D81823061F1823050F1843021F4DD
:101240008E81882351F12EC02F81388537FD20C033
:101250006E812F3131051CF06623F9F023C08EE139
:1012600090E0821B930B29853A854B855C8504C0F1
:1012700056954795379527958A95D2F76623B1F00D
:1012800050954095309521953F4F4F4F5F4F0EC081
:1012900020E030E040E050E009C02FEF3FEF4FEF9B
:1012A0005FE704C020E030E040E050E8B901CA0147
:1012B0002C96E2E00C94150CA8E0B0E0E2E6F9E030
:1012C0000C94F10B7B018C01611571058105910571
:1012D00019F482E0898360C083E089838EE1C82E9F
:1012E000D12CDC82CB82ED82FE820F831887C8016D
:1012F000B7010E94D509FC013197F7FF3BC02227B7
:1013000033272E1B3F0B57016801022E04C0D694D1
:10131000C794B794A7940A94D2F740E050E060E0F5
:1013200070E081E090E0A0E0B0E004C0880F991F79
:10133000AA1FBB1F2A95D2F70197A109B1098E21D7
:101340009F21A023B1230097A105B10521F041E021
:1013500050E060E070E04A295B296C297D294D83CB
:101360005E836F8378878EE190E08E1B9F0B9C835A
:101370008B8312C0309781F00E2E04C0EE0CFF1C40
:10138000001F111F0A94D2F7ED82FE820F83188787
:10139000CE1ADF0ADC82CB821A82CE0101960E942D
:1013A000240A2896EAE00C940D0CEF92FF920F931A
:1013B0001F937B018C0180E0E81680E0F80681E055
:1013C000080780E0180788F48FEFE816F10401059C
:1013D000110531F028F088E090E0A0E0B0E017C0FF
:1013E00080E090E0A0E0B0E012C080E0E81680E08D
:1013F000F80680E0080781E0180728F088E190E00F
:10140000A0E0B0E004C080E190E0A0E0B0E020E225
:1014100030E040E050E0281B390B4A0B5B0B04C066
:1014200016950795F794E7948A95D2F7F701E15A54
:10143000FE4F8081281B310941095109C9011F91C3
:101440000F91FF90EF900895DF92EF92FF920F932C
:101450001F93FC01E480F58006811781D180808193
:10146000823048F480E090E0A0E1B0E0E82AF92A78
:101470000A2B1B2BA5C0843009F49FC0823021F4B5
:10148000EE24FF24870105C0E114F10401051105D4
:1014900019F4E0E0F0E096C0628173819FEF62385A
:1014A00079070CF05BC022E83FEF261B370B2A318F
:1014B00031052CF020E030E040E050E02AC0B801D7
:1014C000A701022E04C076956795579547950A9413
:1014D000D2F781E090E0A0E0B0E004C0880F991F4F
:1014E000AA1FBB1F2A95D2F70197A109B1098E2126
:1014F0009F21A023B1230097A105B10521F081E030
:1015000090E0A0E0B0E09A01AB01282B392B4A2BE8
:101510005B2BDA01C9018F779070A070B0708034B6
:101520009105A105B10539F427FF09C0205C3F4FA3
:101530004F4F5F4F04C0215C3F4F4F4F5F4FE0E084
:10154000F0E02030A0E03A07A0E04A07A0E45A0704
:1015500010F0E1E0F0E079018A0127C06038710500
:1015600064F5FB01E158FF4FD801C7018F779070F8
:10157000A070B07080349105A105B10539F4E7FE83
:101580000DC080E490E0A0E0B0E004C08FE390E004
:10159000A0E0B0E0E80EF91E0A1F1B1F17FF05C0F0
:1015A00016950795F794E794319687E01695079579
:1015B000F794E7948A95D1F705C0EE24FF248701BC
:1015C000EFEFF0E06E2F679566276795902F9F7776
:1015D000D794DD24D7948E2F8695492F462B582FEC
:1015E0005D29B701CA011F910F91FF90EF90DF9025
:1015F0000895FC01DB01408151812281622F6F77C8
:1016000070E0221F2227221F9381892F880F822BAF
:10161000282F30E0991F9927991F11969C931197B5
:1016200021153105A9F5411551056105710511F423
:1016300082E037C082E89FEF13969C938E931297B7
:101640009A01AB0167E0220F331F441F551F6A95B3
:10165000D1F783E08C930DC0220F331F441F551F19
:1016600012968D919C911397019713969C938E934C
:101670001297203080E0380780E0480780E4580760
:1016800058F314962D933D934D935C9317970895BB
:101690002F3F310579F4411551056105710519F4A4
:1016A00084E08C93089564FF03C081E08C9312C0A2
:1016B0001C9210C02F57304013963C932E931297D4
:1016C00083E08C9387E0440F551F661F771F8A9530
:1016D000D1F7706414964D935D936D937C93179737
:1016E00008951F93DC01FB019C91923008F447C0E0
:1016F0008081823008F443C0943051F411961C91DB
:10170000843099F58181682F70E0611B71093FC0B9
:10171000843021F0923031F48230B9F18181882314
:1017200089F12DC011961C9111978230F1F08181C1
:101730001817D9F412962D913C91139782819381B9
:101740008217930794F028173907BCF014968D91EF
:101750009D910D90BC91A02D2481358146815781AA
:10176000281739074A075B0718F4112341F00AC00C
:1017700082179307A407B50740F4112319F061E01D
:1017800070E005C06FEF7FEF02C060E070E0CB015A
:101790001F910895629FD001739FF001829FE00D19
:1017A000F11D649FE00DF11D929FF00D839FF00DE0
:1017B000749FF00D659FF00D9927729FB00DE11D8C
:1017C000F91F639FB00DE11DF91FBD01CF01112469
:1017D00008952F923F924F925F926F927F928F92D5
:1017E0009F92AF92BF92CF92DF92EF92FF920F93B0
:1017F0001F93CF93DF93CDB7DEB7CA1BDB0B0FB6BA
:10180000F894DEBF0FBECDBF09942A883988488876
:101810005F846E847D848C849B84AA84B984C8840C
:10182000DF80EE80FD800C811B81AA81B981CE0F03
:10183000D11D0FB6F894DEBF0FBECDBFED010895E8
:10184000CF93DF93BC018230910510F462E070E029
:10185000A091DB02B091DC02ED01E0E0F0E040E0BD
:1018600050E021C0888199818617970769F48A81A1
:101870009B81309719F09383828304C09093DC029C
:101880008093DB02FE0134C06817790738F44115F4
:10189000510519F08417950708F4AC01FE018A81FF
:1018A0009B819C01E9012097E9F641155105A9F1B9
:1018B000CA01861B970B049708F4BA01E0E0F0E038
:1018C0002AC08D919C91119784179507F9F464179C
:1018D000750781F412968D919C911397309719F0AA
:1018E0009383828304C09093DC028093DB02FD012A
:1018F00032964FC0CA01861B970BFD01E80FF91FF6
:101900006193719302978D939C9343C0FD018281F3
:1019100093819C01D9011097A1F68091D9029091F1
:10192000DA02892B41F480916102909162029093D6
:10193000DA028093D902409163025091640241150A
:10194000510541F44DB75EB780915F0290916002FE
:10195000481B590B2091D9023091DA022417350720
:10196000B0F4CA01821B930B8617970780F0AB0176
:101970004E5F5F4F8417950750F0420F531F5093EF
:10198000DA024093D902F9016193719302C0E0E059
:10199000F0E0CF01DF91CF910895CF93DF930097CF
:1019A00009F450C0EC0122971B821A82A091DB023D
:1019B000B091DC02109709F140E050E0AC17BD0790
:1019C00008F1BB83AA83FE0121913191E20FF31F3D
:1019D000AE17BF0779F48D919C911197280F391F8D
:1019E0002E5F3F4F3983288312968D919C911397D8
:1019F0009B838A834115510571F4D093DC02C09317
:101A0000DB0220C012968D919C911397AD01009737
:101A100011F0DC01D3CFFA01D383C283219131913C
:101A2000E20FF31FCE17DF0769F488819981280F31
:101A3000391F2E5F3F4FFA01318320838A819B81BA
:101A400093838283DF91CF910895AEE0B0E0EBE223
:101A5000FDE00C94F70B0D891E8986E08C831A83B8
:101A600009838FEF9FE79E838D839E01275E3F4F03
:101A7000CE0101966F89788DA9010E94F50D2F8105
:101A80003885020F131FF80110822E96E4E00C94A3
:101A9000130C0AD029ED3BE54EED5EE355C90EF07F
:101AA00087C394C368947EC3E0D3C8F39923D1F36A
:101AB000C6F3DF93CF931F930F93FF92C92FDD27B8
:101AC00088232AF02197660F771F881FDAF720E016
:101AD00030E040E85FEB9FE3883920F0803E30F053
:101AE00021968F7704D9E8E6F0E003C000D9E5E954
:101AF000F0E06FD38B01BE01EC01FB2E6F57710933
:101B00007595771F880B990B25DB28E132E741E3B8
:101B10005FE314D0AF2D9801AE01FF900F911F919C
:101B2000CF91DF91ECD288C379D328F07ED318F01F
:101B3000952309F037C34AC31124B2C38ED3A0F34F
:101B4000959FD1F3950F50E0551F629FF001729F52
:101B5000BB27F00DB11D639FAA27F00DB11DAA1F71
:101B6000649F6627B00DA11D661F829F2227B00DBE
:101B7000A11D621F739FB00DA11D621F839FA00D49
:101B8000611D221F749F3327A00D611D231F849F99
:101B9000600D211D822F762F6A2F11249F575040F0
:101BA0008AF0E1F088234AF0EE0FFF1FBB1F661F8B
:101BB000771F881F91505040A9F79E3F510570F044
:101BC000F1C26EC35F3FECF3983EDCF386957795E8
:101BD0006795B795F795E7959F5FC1F7FE2B880F3F
:101BE000911D9695879597F90895ABE0B0E0EBEFDE
:101BF000FDE00C94E90B3C012B015A01FC0117821A
:101C00001682838181FD03C06FEF7FEFC6C19AE02A
:101C1000892E1E010894211C311CF3012381F2013D
:101C200023FD859123FF81912F01882309F4B2C1FF
:101C3000853239F423FD859123FF81912F0185326F
:101C400029F490E0B3010E94E80FE7CF982FFF241A
:101C5000EE249924FFE1FF15D0F09B3269F09C320D
:101C600028F4903259F0933291F40EC09D3249F02D
:101C7000903369F441E024C052E0F52A84E0F82A68
:101C800028C098E0F92A25C0E0E1FE2A22C0F7FC2E
:101C900029C0892F80538A3070F4F6FE05C0989CC5
:101CA000902C1124980E15C0E89CE02C1124E80E0D
:101CB000F0E2FF2A0EC09E3229F4F6FC6BC140E42C
:101CC000F42A07C09C3619F450E8F52A02C0983669
:101CD00049F4F20123FD959123FF91912F0199235E
:101CE00009F0B8CF892F8554833018F080528330A3
:101CF00038F444E050E0A40EB51E5FE359830FC0F2
:101D0000933631F0933779F0933509F056C020C0FF
:101D1000F5018081898342E050E0A40EB51E610187
:101D200001E010E012C0F501C080D180F6FC03C0D4
:101D30006FEF7FEF02C0692D70E042E050E0A40E2B
:101D4000B51EC6010E94DD0F8C015FE7F52214C0AD
:101D5000F501C080D180F6FC03C06FEF7FEF02C0B9
:101D6000692D70E042E050E0A40EB51EC6010E944D
:101D7000D20F8C0150E8F52AF3FE07C01AC080E2AA
:101D800090E0B3010E94E80FEA948E2D90E00817CE
:101D90001907A8F30EC0F601F7FC8591F7FE8191B3
:101DA0006F0190E0B3010E94E80FE110EA94015046
:101DB00010400115110579F7EAC0943611F09936F3
:101DC00069F5F7FE08C0F501208131814281538118
:101DD00084E090E00AC0F501808191819C01442754
:101DE00037FD4095542F82E090E0A80EB91E9FE683
:101DF000F92257FF09C050954095309521953F4FE6
:101E00004F4F5F4FE0E8FE2ACA01B901A1012AE065
:101E100030E00E941410D82ED21840C0953729F413
:101E20001F2D1F7E2AE030E01DC01F2D197F9F3619
:101E300061F0903720F4983509F0ACC00FC09037AE
:101E400039F0983709F0A6C004C028E030E00AC095
:101E5000106114FD146020E130E004C014FD166030
:101E600020E132E017FF08C0F501608171818281B5
:101E7000938144E050E008C0F50180819181BC016C
:101E800080E090E042E050E0A40EB51EA1010E9467
:101E90001410D82ED2188FE7F82EF122F6FE0BC0C0
:101EA0005EEFF522D91438F4F4FE07C0F2FC05C049
:101EB0008FEEF82202C01D2D01C0192DF4FE0DC0B9
:101EC000FE01ED0DF11D8081803319F499EEF922A8
:101ED00008C01F5FF2FE05C003C08F2D867809F091
:101EE0001F5F0F2DF3FC14C0F0FE0FC01E1510F085
:101EF0009D2C0BC09D2C9E0C911A1E2D06C080E2BD
:101F000090E0B3010E94E80F1F5F1E15C0F304C0EC
:101F10001E1510F4E11A01C0EE2404FF0FC080E387
:101F200090E0B3010E94E80F02FF1DC001FD03C055
:101F300088E790E00EC088E590E00BC0802F86789F
:101F400091F001FF02C08BE201C080E2F7FC8DE25C
:101F500090E0B3010E94E80F06C080E390E0B30177
:101F60000E94E80F9A94D914C0F3DA94F101ED0DB0
:101F7000F11D808190E0B3010E94E80FDD20A9F7F8
:101F800006C080E290E0B3010E94E80FEA94EE20E0
:101F9000C1F743CEF30166817781CB012B96E2E155
:101FA0000C94050CFC010590615070400110D8F7AD
:101FB000809590958E0F9F1F0895FC016150704091
:101FC00001900110D8F7809590958E0F9F1F08956E
:101FD0000F931F93CF93DF938C01EB018B8181FFD4
:101FE0001BC082FF0DC02E813F818C819D812817EF
:101FF000390764F4E881F9810193F983E88306C025
:10200000E885F985802F0995892B31F48E819F8190
:1020100001969F838E8302C00FEF1FEFC801DF91EF
:10202000CF911F910F910895FA01AA27283051F1FD
:10203000203181F1E8946F936E7F6E5F7F4F8F4FF9
:102040009F4FAF4FB1E03ED0B4E03CD0670F781F58
:10205000891F9A1FA11D680F791F8A1F911DA11D3D
:102060006A0F711D811D911DA11D20D009F4689476
:102070003F912AE0269F11243019305D3193DEF61E
:10208000CF010895462F4770405D4193B3E00FD0D4
:10209000C9F7F6CF462F4F70405D4A3318F0495DBF
:1020A00031FD4052419302D0A9F7EACFB4E0A695A2
:1020B0009795879577956795BA95C9F700976105C4
:1020C000710508959B01AC010A2E0694579547951A
:1020D00037952795BA95C9F7620F731F841F951F0F
:1020E000A01D08959BD030F0A0D020F031F49F3F88
:1020F00011F41EF46BC00EF4E095E7FB53C0E92F1A
:10210000ACD080F3BA17620773078407950718F0FD
:1021100071F49EF5C4C00EF4E0950B2EBA2FA02DDD
:102120000B01B90190010C01CA01A0011124FF2784
:10213000591B99F0593F50F4503E68F11A16F0407F
:10214000A22F232F342F4427585FF3CF469537957E
:102150002795A795F0405395C9F77EF41F16BA0B43
:10216000620B730B840BBAF09150A1F0FF0FBB1FF1
:10217000661F771F881FC2F70EC0BA0F621F731F3A
:10218000841F48F4879577956795B795F7959E3F97
:1021900008F0B3CF9395880F08F09927EE0F979525
:1021A0008795089597F99F6780E870E060E008954B
:1021B0009F3F31F0915020F4879577956795B795BB
:1021C000880F911D9695879597F908959FEF80EC5C
:1021D0000895DF93CF931F930F93FF92EF92DF92B7
:1021E0007B018C01689405C0DA2EEF01A7DCFE01AB
:1021F000E894A5912591359145915591AEF3EF0164
:102200007EDFFE019701A801DA9479F7DF90EF9065
:10221000FF900F911F91CF91DF91089500240A94B0
:102220001616170618060906089500240A941216B1
:102230001306140605060895092E0394000C11F4E4
:10224000882352F0BB0F40F4BF2B11F460FF04C091
:102250006F5F7F4F8F4F9F4F089557FD9058440FEA
:10226000551F59F05F3F71F04795880F97FB991FF5
:1022700061F09F3F79F087950895121613061406B2
:10228000551FF2CF4695F1DF08C01616170618063F
:10229000991FF1CF86957105610508940895E8941A
:1022A000BB2766277727CB0197F90895F894FFCFCE
:1022B0000A0D00436F6D70617265204D6174636833
:1022C00020436F6D6D616E643A20004F46460057A3
:1022D00041524D494E4720555000434841524749CD
:1022E0004E47004144432056616C75653A200073A7
:1022F0006574757020636F6D706C6574650A0D0090
:1023000000004843256400000000000000000000B9
:102310000102020303030304040404040404040587
:10232000050505050505050505050505050505065C
:10233000060606060606060606060606060606063D
:10234000060606060606060606060606060606072C
:10235000070707070707070707070707070707070D
:1023600007070707070707070707070707070707FD
:1023700007070707070707070707070707070707ED
:1023800007070707070707070707070707070708DC
:1023900008080808080808080808080808080808BD
:1023A00008080808080808080808080808080808AD
:1023B000080808080808080808080808080808089D
:1023C000080808080808080808080808080808088D
:1023D000080808080808080808080808080808087D
:1023E000080808080808080808080808080808086D
:1023F000080808080808080808080808080808085D
:102400000808080808080808080808080808082034
:0624100000DD02000000E7
:00000001FF
