:100000000C9461000C947E000C947E000C9401030F
:100010000C947E000C947E000C947E000C942903BA
:100020000C947E000C947E000C947E000C947E0058
:100030000C947E000C947E000C94EC020C947E00D8
:100040000C947E000C947E000C947E000C947E0038
:100050000C947E000C94BE020C947E000C947E00E6
:100060000C947E000C947E0008000000BE9224498F
:10007000123EABAAAA2ABECDCCCC4C3E00000080DA
:10008000BEABAAAAAA3E00000000BF000000803F4D
:100090000000000000084178D3BB4387D1133D190D
:1000A0000E3CC3BD4282AD2B3E68EC8276BED98F3A
:1000B000E1A93E4C80EFFFBE01C4FF7F3F0000007E
:1000C000000011241FBECFEFD8E0DEBFCDBF13E08C
:1000D000A0E0B1E0ECE4F9E202C005900D92AA3E86
:1000E000B107D9F714E0AAEEB3E001C01D92AA3A15
:1000F000B107E1F70E941E040C94A4140C940000B4
:1001000024982C98539A529A08951C9906C084E01A
:1001100090E090935704809356040895809156047C
:1001200090915704039711F45A9A08955A98089594
:10013000ECE7F0E080818F7B808380818F77808304
:100140008DE880937A00EEE7F0E080818360808321
:10015000089585B5856085BDEEE6F0E0808182601A
:1001600080838CE987BD089584B1866084B9E0E816
:10017000F0E01082A1E8B0E01C921092850010928D
:1001800084008FEF9FEF909387008093860087ED28
:100190009AE09093890080938800808180688083B2
:1001A0008081826080838C9188618C938C91826045
:1001B0008C9308958091FE039091FF03039729F497
:1001C0008091F4039091F50302C082E390E0909354
:1001D000F7038093F60308958091FE039091FF0347
:1001E0008130910529F08330910511F0049741F495
:1001F0008091560490915704039711F45B9A0895E7
:100200005B9808952F923F924F925F926F927F92E8
:100210008F929F92AF92BF92CF92DF92EF92FF9216
:100220000F931F93DF93CF9300D000D0CDB7DEB7ED
:100230002090EA033090EB034090EC035090ED03E4
:1002400060E070EC8CE395E4A20191010E945309F7
:100250003B014C018091580490915904A0915A049B
:10026000B0915B0489839A83AB83BC83C401B301DF
:1002700020E030E74DE255E40E94870B88234CF1E3
:100280006091F0037091F103882777FD8095982F96
:100290000E94170C5B016C016091F6037091F703EB
:1002A00080E090E00E94C90C7B018C01C601B50181
:1002B000A80197010E94B70B88235CF4C801B7011D
:1002C000A60195010E9453092FE632E143E85AE363
:1002D0003CC0C401B30120E030EC4CE355E40E9483
:1002E000E70B18160CF441C06091F0037091F10314
:1002F000882777FD8095982F0E94170C5B016C0171
:100300006091F6037091F70380E090E00E94C90CC1
:100310007B018C01C601B501A80197010E94570B12
:1003200018161CF589819A81AB81BC818955924050
:10033000A040B040D0F0C601B501A80197010E94CD
:1003400053092FE632E143E85AEB0E94B1099B01C1
:10035000AC01C201B1010E9484096093EA03709369
:10036000EB038093EC039093ED030F900F900F90AD
:100370000F90CF91DF911F910F91FF90EF90DF9041
:10038000CF90BF90AF909F908F907F906F905F9035
:100390004F903F902F90089587ED9AE090938900B9
:1003A000809388001092EF031092EE0380E090E0BB
:1003B000A0E0B0E08093EA039093EB03A093EC03FA
:1003C000B093ED038091580490915904A0915A0480
:1003D000B0915B040A97A105B10530F081E090E08F
:1003E00090935704809356040895809158049091F7
:1003F0005904A0915A04B0915B040A97A105B10574
:1004000020F4109257041092560487ED9AE09093CE
:100410008900809388008091EE039091EF0301960C
:100420009093EF038093EE03805D974030F082E07D
:1004300090E0909357048093560408958091580457
:1004400090915904A0915A04B0915B048A309105AF
:10045000A105B10520F41092570410925604883C6F
:100460009105A105B10530F483E090E09093570425
:100470008093560488E69BE09093890080938800DF
:1004800008958091580490915904A0915A04B09114
:100490005B040A97A105B10520F41092570410924D
:1004A00056048091FE039091FF03049739F487ED81
:1004B0009AE0909389008093880008956091EA0300
:1004C0007091EB038091EC039091ED030E94750C09
:1004D0002CEC3BE0261B370B3093890020938800DF
:1004E0000E94020108958091F2039091F303845FCA
:1004F000914060F08091FE039091FF03019731F4E9
:1005000085E090E0909357048093560408951C99D9
:1005100006C084E090E09093570480935604809145
:10052000F2039091F303845F914060F08091FE03A9
:100530009091FF03019731F485E090E09093570488
:100540008093560480915604909157048130910510
:1005500061F08130910530F08230910549F00397C8
:1005600061F409C00E94CC0108950E94F50108952C
:100570000E941E0208950E94410208951F920F9248
:100580000FB60F9211248F939F93809178009091D2
:1005900079009093FD038093FC0380915404909123
:1005A00055048130910521F480917C00816005C063
:1005B000892B29F480917C008E7F80937C0081E0E0
:1005C00090E09093FB038093FA039F918F910F909B
:1005D0000FBE0F901F9018951F920F920FB60F929B
:1005E00011248F939F9316BC81E090E09093F903C0
:1005F0008093F8039F918F910F900FBE0F901F90E3
:1006000018951F920F920FB60F9211242F933F93BC
:100610004F935F936F937F938F939F93AF93BF930A
:10062000EF93FF93189B04C088E594E00E940406B2
:10063000FF91EF91BF91AF919F918F917F916F91BA
:100640005F914F913F912F910F900FBE0F901F9090
:1006500018951F920F920FB60F9211242F933F936C
:100660004F935F936F937F938F939F93AF93BF93BA
:10067000EF93FF931092B20088E594E00E94110678
:10068000FF91EF91BF91AF919F918F917F916F916A
:100690005F914F913F912F910F900FBE0F901F9040
:1006A00018958F929F92AF92BF92CF92DF92EF9266
:1006B000FF920F931F938091F8039091F903892B78
:1006C00061F10E9487026091560470915704209155
:1006D000F0033091F1030091F2031091F303C09005
:1006E000EA03D090EB03E090EC03F090ED03A090D0
:1006F000EE03B090EF038090F6039090F70380E054
:1007000094E048E554E00E944F0680E094E00E94A7
:10071000F9061092F9031092F8031F910F91FF90C0
:10072000EF90DF90CF90BF90AF909F908F90089503
:1007300020915404309155042130310589F490936F
:1007400053048093520482E194E00E945D059093EB
:10075000F1038093F003109255041092540414C0D6
:10076000232B91F49093A5048093A40484E694E051
:100770000E945D059093F3038093F20381E090E083
:10078000909355048093540480917A008064809300
:100790007A0008955A9A0E94A7060895F8940E9434
:1007A00080000E94B40085B5856085BDEEE6F0E06E
:1007B0008081826080838CE987BD0E9498000E94BE
:1007C0009B040E94EB050E94F905789488E594E06B
:1007D0000E94DD0508951F930E94AC060E94BB0491
:1007E000182F0E94EA06123369F013331CF41133F8
:1007F00001F505C0133349F01433D9F413C081E077
:1008000090E012C00E94CA03E9CF83E090E0909389
:10081000FF038093FE030E94BB079093F503809330
:10082000F4030AC084E090E09093FF038093FE03FA
:1008300003C00E947B06D0CF1F9108958F929F9294
:10084000AF92BF92CF92DF92EF92FF920F931F93DE
:100850000E94CE0380917A00806480937A008AE0BF
:1008600090E0909313048093120490936504809316
:100870006404109257041092560481E090E0909323
:1008800055048093540480E094E00E94D606609161
:100890005604709157042091F0033091F1030091B8
:1008A000F2031091F303C090EA03D090EB03E090C1
:1008B000EC03F090ED03A090EE03B090EF03809076
:1008C000F6039090F70380E094E048E554E00E943E
:1008D0004F061092FF031092FE030E94EB038091DB
:1008E000FE039091FF03039729F48091F403909104
:1008F000F50302C082E390E09093F7038093F60340
:100900000E94EC008091FA039091FB03892B51F037
:100910008091FC039091FD030E9498031092FB03C9
:100920001092FA030E94510388E594E00E941B068E
:100930000E948E00E5CF1092C50080E18093C40034
:1009400088E18093C1008EE08093C2000895982FC3
:100950008091C00085FFFCCF9093C6000895FC01F4
:1009600090818091C00085FFFCCF9093C6003196A6
:100970009923B1F708958091C00087FFFCCF809143
:10098000C60008958091C00087FFFCCF8091C6000B
:1009900090E00895EF92FF920F931F938C01B8019E
:1009A000882777FD8095982F0E94170C0E9497103A
:1009B0000E94750CDC01CB0104960E946E0FF82E8C
:1009C000E92E00D000D000D0EDB7FEB73196ADB71C
:1009D000BEB711968C93918380E091E093838283DC
:1009E000158304830E9473108DB79EB706960FB6C9
:1009F000F8949EBF0FBE8DBF8F2D9E2D1F910F911E
:100A0000FF90EF900895CF92DF92EF92FF920F93B5
:100A10001F93CF93DF938C01B801882777FD8095D2
:100A2000982F0E94170C0E9497100E94750C7B0152
:100A300082E090E0E80EF91EC70102960E946E0F58
:100A4000D92EC82FD92FC82E00D000D000D0EDB796
:100A5000FEB73196ADB7BEB711968C93918380E007
:100A600091E093838283158304830E94731020E0B6
:100A700030E08DB79EB706960FB6F8949EBF0FBEB6
:100A80008DBF0CC0FE01E20FF31FE0818091C0001A
:100A900085FFFCCFE093C6002F5F3F4F2E153F052B
:100AA0008CF3C6010E941B10DF91CF911F910F9113
:100AB000FF90EF90DF90CF900895AF92BF92CF92CA
:100AC000DF92EF92FF920F931F93CF93DF93DC019E
:100AD000DE962D913C91DF978D919C91119728176F
:100AE000390730F42F5F3F4FDF963C932E93DE970C
:100AF000A05CBF4F8D919C911197A054B04013966C
:100B00009C938E9312978D919C9111979C012150EB
:100B10003040F901EE0FFF1FEA0FFB1F0AC021153D
:100B2000310521F08081918193838283215030406F
:100B3000329737FFF4CFDE96AD90BC90DF976D0112
:100B4000C0E0D0E00F2EF0E0EF2EF0E0FF2EF0E05E
:100B50000F2FF0E01F2FF02D10C0F6016081718182
:100B600080E090E00E94C90C9B01AC01C801B70174
:100B70000E9484097B018C01219682E090E0C80EDE
:100B8000D91ECA15DB0548F3B50180E090E00E944C
:100B9000C90C9B01AC01C801B7010E94AB0A0E94BD
:100BA000750CCB01DF91CF911F910F91FF90EF90CA
:100BB000DF90CF90BF90AF900895FC01108211821A
:100BC0001282138214821582168217821086118671
:100BD000128613860895E1EBF0E0808187608083C0
:100BE000E0E7F0E08081826080838FEF8093B30044
:100BF0000895E8E6F0E0808181608083EBE6F0E034
:100C00008081816080830895FC0184819581A68123
:100C1000B7810196A11DB11D84839583A683B783F7
:100C2000089521E030E040E050E0FC01208731876A
:100C3000428753870895CF93DF93EC018885998588
:100C4000AA85BB850097A105B10531F16C817D8135
:100C50008E819F810E94C90C2DE53FE84AE151E455
:100C60000E94AB0A20E030E040E752E40E94B10964
:100C70002DEC3CEC4CE350E40E94AB0A0E94DB07F5
:100C8000688379838A839B831C821D821E821F82D4
:100C9000188619861A861B86DF91CF9108958F9248
:100CA0009F92AF92BF92CF92DF92EF92FF920F93FB
:100CB0001F93DF93CF93CDB7DEB7FC0171836083C1
:100CC000538342833583248317830683C086D1866A
:100CD000E286F386B586A486918A808ACF91DF91D9
:100CE0001F910F91FF90EF90DF90CF90BF90AF904A
:100CF0009F908F90089583E091E00E94AF048FE170
:100D000091E00E94AF0408950F931F9382E291E057
:100D10000E94AF040FE111E0C8010E94AF048EE30E
:100D200091E00E94AF04C8010E94AF0486E491E004
:100D30000E94AF04C8010E94AF048EE491E00E94BB
:100D4000AF04C8010E94AF041F910F91089585E57B
:100D500091E00E94AF0408950F931F938DE791E0F7
:100D60000E94AF040FE111E0C8010E94AF048CE8BB
:100D700091E00E94AF04C8010E94AF0487E991E0AE
:100D80000E94AF04C8010E94AF048AEA91E00E9469
:100D9000AF04C8010E94AF0482EC91E00E94AF044E
:100DA000C8010E94AF041F910F9108950F931F93E4
:100DB000FC011786168686EE91E00E94AF040FE1D3
:100DC00011E0C8010E94AF04C8010E94AF041F9146
:100DD0000F9108951F93182F89E092E00E94AF04AD
:100DE000812F0E94A7048FE191E00E94AF041F9120
:100DF00008950F931F93CF93DF938C01DC011E9610
:100E00008D919C911F978436910508F4A9C087E1C4
:100E100092E00E94AF048FE191E00E94AF04F801DC
:100E200080819181019779F489E292E00E94AF0478
:100E3000D8011C968D919C911D970E9403058FE10E
:100E400091E00E94AF04F801C081D18188E392E073
:100E50000E94AF04C230D105B9F0C330D10528F4E7
:100E6000209761F02197E9F40CC0C430D10591F0CE
:100E7000C430D10560F02597A1F40FC088E492E05A
:100E80000EC08CE492E00BC087E592E008C087E6D4
:100E900092E005C080E792E002C086E792E00E94FF
:100EA000AF048FE191E00E94AF0486E892E00E94D7
:100EB000AF04D8011296ED91FC9113978081918136
:100EC0000E9403058FE191E00E94AF048CE892E05C
:100ED0000E94AF04F801848195810E9403058FE18F
:100EE00091E00E94AF048FE992E00E94AF04D80124
:100EF00016968D919C9117970E9403058FE191E0C2
:100F00000E94AF0482EB92E00E94AF04F80160857A
:100F10007185828593850E94750CDC01CB010E944E
:100F200003058FE191E00E94AF0487EC92E00E94FC
:100F3000AF04D80150968D919C9151970E94030562
:100F40008FE191E00E94AF048FE191E00E94AF0435
:100F50008FE191E00E94AF04F8011786168606C063
:100F60000196D8011F969C938E931E97DF91CF9187
:100F70001F910F910895CF93DF930E9484060E94E2
:100F8000BB04C82FDD27C7FDD0950E94EA06C133F8
:100F9000D10519F428E730E00AC0C233D10519F4AD
:100FA00024E630E004C0E39741F72BE430E0C901C8
:100FB000DF91CF910895EF92FF920F931F937B01E2
:100FC0008C0120E030E040E05FE40E94870B882342
:100FD0008CF0C801B70120E030E040E05FE40E94FF
:100FE00053090E94750C9B01AC01205030404040D9
:100FF000504806C0C801B7010E94750C9B01AC01A6
:10100000B901CA011F910F91FF90EF900895A0E0E0
:10101000B0E0EDE0F8E00C94370FDC012B01FA01B1
:101020009C91923008F439C1EB018881823008F438
:1010300033C1943069F4843009F02FC111969C912A
:1010400011978981981709F428C1ABEDB2E025C149
:10105000843009F421C18230A9F4923009F01DC115
:101060009A01AD0188E0EA010990AE01E901099217
:101070009E018150C1F7E201898111969C918923DB
:10108000818308C1923009F407C112962D903C90DB
:101090001397EB018A819B811496AD90BD90CD9002
:1010A000DC901797EC80FD800E811F819101281B39
:1010B000390BB90137FF04C066277727621B730B12
:1010C000603271050CF061C0121613066CF5370121
:1010D0004801062E04C096948794779467940A94E6
:1010E000D2F721E030E040E050E004C0220F331F8F
:1010F000441F551F6A95D2F7215030404040504060
:101100002E213F2140235123211531054105510551
:1011100021F021E030E040E050E079018A01E6284A
:10112000F728082919293CC0232BD1F1260E371E98
:1011300035014601062E04C09694879477946794EF
:101140000A94D2F721E030E040E050E004C0220FE2
:10115000331F441F551F6A95D2F72150304040403D
:1011600050402A213B214C215D21211531054105AB
:10117000510521F021E030E040E050E059016A01E2
:10118000A628B728C828D9280BC0821593052CF0AB
:101190001C01AA24BB24650103C0EE24FF2487019F
:1011A00011969C91D20111968C91981709F445C023
:1011B000992339F0A80197012A193B094C095D09C7
:1011C00006C0A60195012E193F09400B510B57FD92
:1011D00008C0118233822282248335834683578359
:1011E0001DC081E081833382228288279927DC0118
:1011F000821B930BA40BB50B84839583A683B783C3
:101200000DC0220F331F441F551F2483358346838F
:1012100057838281938101979383828324813581CF
:1012200046815781DA01C9010197A109B1098F5F90
:101230009F4FAF4FBF4328F30BC09183338222826D
:10124000EA0CFB1C0C1D1D1DE482F582068317832E
:1012500083E08083248135814681578157FF1AC0FE
:10126000C901AA2797FDA095BA2F81709070A07030
:10127000B0705695479537952795822B932BA42BC5
:10128000B52B84839583A683B7838281938101964E
:1012900093838283DF0101C0D201CD01CDB7DEB7D8
:1012A000E2E10C94530FA0E2B0E0E9E5F9E00C9420
:1012B000430F69837A838B839C832D833E834F8383
:1012C0005887E9E0EE2EF12CEC0EFD1ECE010196C2
:1012D000B7010E94660E8E010F5E1F4FCE0105966C
:1012E000B8010E94660E8A8991E089278A8BC7011E
:1012F000B801AE01475E5F4F0E9407080E94910D42
:10130000A096E6E00C945F0FA0E2B0E0EAE8F9E016
:101310000C94430F69837A838B839C832D833E8354
:101320004F835887F9E0EF2EF12CEC0EFD1ECE0115
:101330000196B7010E94660E8E010F5E1F4FCE010F
:101340000596B8010E94660EC701B801AE01475E5E
:101350005F4F0E9407080E94910DA096E6E00C9452
:101360005F0FA0E2B0E0E7EBF9E00C94370F698380
:101370007A838B839C832D833E834F835887CE0152
:101380000196BE01675F7F4F0E94660ECE010596F3
:10139000BE016F5E7F4F0E94660E9985923088F085
:1013A00089898230C8F0943019F4823051F404C035
:1013B000843029F4923081F48BED92E0C6C09230F3
:1013C00049F420E09A858A89981321E02A87CE0182
:1013D0000996BBC0823049F420E09A858A89981327
:1013E00021E02A8BCE014196B0C02D843E844F84EB
:1013F00058886D887E888F88988CEE24FF2487011A
:10140000AA24BB24650140E050E060E070E0E0E029
:10141000F0E0C10181709070892BE9F0E60CF71CB7
:10142000081D191D9A01AB012A0D3B1D4C1D5D1DA8
:1014300080E090E0A0E0B0E0E614F70408051905AC
:1014400020F481E090E0A0E0B0E0BA01A901480FEB
:10145000591F6A1F7B1FAA0CBB1CCC1CDD1C97FEEE
:1014600008C081E090E0A0E0B0E0A82AB92ACA2A2A
:10147000DB2A3196E032F10549F0660C771C881CB6
:10148000991C5694479437942794C3CFFA85EA89D8
:101490002B893C898B859C85280F391F2E5F3F4FF8
:1014A00017C0CA0181709070892B61F0169507955D
:1014B000F794E79480E090E0A0E0B0E8E82AF92A09
:1014C0000A2B1B2B76956795579547952F5F3F4FB6
:1014D00077FDE7CF0CC0440F551F661F771F17FD20
:1014E0004160EE0CFF1C001F111F215030404030A6
:1014F00090E0590790E0690790E4790760F32B8F3B
:101500003C8FDB01CA018F779070A070B07080347F
:101510009105A105B10561F447FD0AC0E114F1048C
:101520000105110529F0405C5F4F6F4F7F4F4078F8
:101530001A8EFE1711F081E08A8F4D8F5E8F6F8FAC
:1015400078A383E0898FCE0149960E94910DA096E1
:10155000E2E10C94530FA8E1B0E0E1EBFAE00C9467
:101560003F0F69837A838B839C832D833E834F83D4
:101570005887B9E0EB2EF12CEC0EFD1ECE01019642
:10158000B7010E94660E8E010F5E1F4FCE010596B9
:10159000B8010E94660E2985223008F47EC0398980
:1015A000323010F4B8017CC08A859A8989278A87ED
:1015B000243011F0223031F4231709F06EC06BEDA6
:1015C00072E06EC0343039F41D861E861F86188A7C
:1015D0001C861B8604C0323021F484E08987B70161
:1015E0005FC02B853C858B899C89281B390B3C87E8
:1015F0002B87ED84FE840F851889AD88BE88CF883F
:10160000D88CEA14FB040C051D0540F4EE0CFF1CFD
:10161000001F111F215030403C872B8720E030E015
:1016200040E050E080E090E0A0E0B0E460E070E0F6
:10163000EA14FB040C051D0540F0282B392B4A2B1E
:101640005B2BEA18FB080C091D09B695A795979521
:101650008795EE0CFF1C001F111F6F5F7F4F6F31CE
:10166000710531F7DA01C9018F779070A070B07001
:1016700080349105A105B10561F427FD0AC0E1148C
:10168000F1040105110529F0205C3F4F4F4F5F4FDA
:1016900020782D873E874F87588BBE01675F7F4F2D
:1016A000CB010E94910D6896EAE00C945B0FA8E1D3
:1016B000B0E0EDE5FBE00C94430F69837A838B8304
:1016C0009C832D833E834F83588789E0E82EF12C3D
:1016D000EC0EFD1ECE010196B7010E94660E8E0132
:1016E0000F5E1F4FCE010596B8010E94660E8985D8
:1016F000823040F08989823028F0C701B8010E9409
:10170000DE0E01C08FEF6896E6E00C945F0FA8E153
:10171000B0E0EDE8FBE00C94430F69837A838B83A0
:101720009C832D833E834F83588789E0E82EF12CDC
:10173000EC0EFD1ECE010196B7010E94660E8E01D1
:101740000F5E1F4FCE010596B8010E94660E898577
:10175000823040F08989823028F0C701B8010E94A8
:10176000DE0E01C08FEF6896E6E00C945F0FA8E1F3
:10177000B0E0EDEBFBE00C94430F69837A838B833D
:101780009C832D833E834F83588789E0E82EF12C7C
:10179000EC0EFD1ECE010196B7010E94660E8E0171
:1017A0000F5E1F4FCE010596B8010E94660E898517
:1017B000823040F08989823028F0C701B8010E9448
:1017C000DE0E01C081E06896E6E00C945F0FA8E1B0
:1017D000B0E0EDEEFBE00C94430F69837A838B83DA
:1017E0009C832D833E834F83588789E0E82EF12C1C
:1017F000EC0EFD1ECE010196B7010E94660E8E0111
:101800000F5E1F4FCE010596B8010E94660E8985B6
:10181000823040F08989823028F0C701B8010E94E7
:10182000DE0E01C081E06896E6E00C945F0FA8E050
:10183000B0E0EDE1FCE00C94400F9B01AC0183E0D3
:101840008983DA01C9018827B7FD83959927AA27DB
:10185000BB27B82E211531054105510519F482E049
:1018600089833AC08823A9F0203080E0380780E0DF
:10187000480780E8580729F460E070E080E09FECBA
:1018800030C0EE24FF248701E21AF30A040B150B83
:1018900002C079018A018EE1C82ED12CDC82CB8274
:1018A000ED82FE820F831887C801B7010E94420DA6
:1018B00001971816190684F4082E04C0EE0CFF1CBC
:1018C000001F111F0A94D2F7ED82FE820F83188742
:1018D000C81AD90ADC82CB82BA82CE0101960E9454
:1018E000910D2896E9E00C945C0FACE0B0E0EBE7DA
:1018F000FCE00C94470F69837A838B839C83CE0131
:101900000196BE016B5F7F4F0E94660E8D81823013
:1019100061F1823050F1843021F48E81882351F1BD
:101920002EC02F81388537FD20C06E812F313105C3
:101930001CF06623F9F023C08EE190E0821B930B2C
:1019400029853A854B855C8504C056954795379522
:1019500027958A95D2F76623B1F05095409530953A
:1019600021953F4F4F4F5F4F0EC020E030E040E0E9
:1019700050E009C02FEF3FEF4FEF5FE704C020E0DA
:1019800030E040E050E8B901CA012C96E2E00C9446
:10199000630FA8E0B0E0EFECFCE00C943F0F7B019C
:1019A0008C01611571058105910519F482E0898327
:1019B00060C083E089838EE1C82ED12CDC82CB828B
:1019C000ED82FE820F831887C801B7010E94420D85
:1019D000FC013197F7FF3BC0222733272E1B3F0B1B
:1019E00057016801022E04C0D694C794B794A794F7
:1019F0000A94D2F740E050E060E070E081E090E0CF
:101A0000A0E0B0E004C0880F991FAA1FBB1F2A9551
:101A1000D2F70197A109B1098E219F21A023B123FB
:101A20000097A105B10521F041E050E060E070E0D1
:101A30004A295B296C297D294D835E836F837887D2
:101A40008EE190E08E1B9F0B9C838B8312C030979E
:101A500081F00E2E04C0EE0CFF1C001F111F0A9413
:101A6000D2F7ED82FE820F831887CE1ADF0ADC825E
:101A7000CB821A82CE0101960E94910D2896EAE04F
:101A80000C945B0FEF92FF920F931F937B018C01DD
:101A900080E0E81680E0F80681E0080780E018079B
:101AA00088F48FEFE816F1040105110531F028F0F4
:101AB00088E090E0A0E0B0E017C080E090E0A0E017
:101AC000B0E012C080E0E81680E0F80680E0080789
:101AD00081E0180728F088E190E0A0E0B0E004C0C1
:101AE00080E190E0A0E0B0E020E230E040E050E0B3
:101AF000281B390B4A0B5B0B04C016950795F7940E
:101B0000E7948A95D2F7F701ED51FD4F8081281BAC
:101B1000310941095109C9011F910F91FF90EF90BF
:101B20000895DF92EF92FF920F931F93FC01E480E0
:101B3000F58006811781D1808081823048F480E071
:101B400090E0A0E1B0E0E82AF92A0A2B1B2BA5C0FF
:101B5000843009F49FC0823021F4EE24FF248701F1
:101B600005C0E114F1040105110519F4E0E0F0E00D
:101B700096C0628173819FEF623879070CF05BC079
:101B800022E83FEF261B370B2A3131052CF020E0ED
:101B900030E040E050E02AC0B801A701022E04C0A6
:101BA00076956795579547950A94D2F781E090E02E
:101BB000A0E0B0E004C0880F991FAA1FBB1F2A95A0
:101BC000D2F70197A109B1098E219F21A023B1234A
:101BD0000097A105B10521F081E090E0A0E0B0E020
:101BE0009A01AB01282B392B4A2B5B2BDA01C90157
:101BF0008F779070A070B07080349105A105B10509
:101C000039F427FF09C0205C3F4F4F4F5F4F04C09E
:101C1000215C3F4F4F4F5F4FE0E0F0E02030A0E00D
:101C20003A07A0E04A07A0E45A0710F0E1E0F0E02C
:101C300079018A0127C06038710564F5FB01E1581C
:101C4000FF4FD801C7018F779070A070B0708034BB
:101C50009105A105B10539F4E7FE0DC080E490E0DF
:101C6000A0E0B0E004C08FE390E0A0E0B0E0E80EB8
:101C7000F91E0A1F1B1F17FF05C016950795F7943D
:101C8000E794319687E016950795F794E7948A953F
:101C9000D1F705C0EE24FF248701EFEFF0E06E2FAF
:101CA000679566276795902F9F77D794DD24D79403
:101CB0008E2F8695492F462B582F5D29B701CA01D3
:101CC0001F910F91FF90EF90DF900895FC01DB01D1
:101CD000408151812281622F6F7770E0221F22277D
:101CE000221F9381892F880F822B282F30E0991F84
:101CF0009927991F11969C93119721153105A9F5E4
:101D0000411551056105710511F482E037C082E883
:101D10009FEF13969C938E9312979A01AB0167E005
:101D2000220F331F441F551F6A95D1F783E08C9310
:101D30000DC0220F331F441F551F12968D919C9189
:101D40001397019713969C938E931297203080E0FF
:101D5000380780E0480780E4580758F314962D931D
:101D60003D934D935C93179708952F3F310579F478
:101D7000411551056105710519F484E08C930895AE
:101D800064FF03C081E08C9312C01C9210C02F57D7
:101D9000304013963C932E93129783E08C9387E008
:101DA000440F551F661F771F8A95D1F770641496EC
:101DB0004D935D936D937C93179708951F93DC016A
:101DC000FB019C91923008F447C08081823008F476
:101DD00043C0943051F411961C91843099F581815F
:101DE000682F70E0611B71093FC0843021F0923090
:101DF00031F48230B9F18181882389F12DC01196A7
:101E00001C9111978230F1F081811817D9F4129644
:101E10002D913C911397828193818217930794F0BF
:101E200028173907BCF014968D919D910D90BC91A7
:101E3000A02D2481358146815781281739074A070B
:101E40005B0718F4112341F00AC082179307A40717
:101E5000B50740F4112319F061E070E005C06FEFA1
:101E60007FEF02C060E070E0CB011F9108952F92D8
:101E70003F924F925F926F927F928F929F92AF921A
:101E8000BF92CF92DF92EF92FF920F931F93CF9367
:101E9000DF93CDB7DEB7CA1BDB0B0FB6F894DEBFFE
:101EA0000FBECDBF09942A88398848885F846E8424
:101EB0007D848C849B84AA84B984C884DF80EE806E
:101EC000FD800C811B81AA81B981CE0FD11D0FB677
:101ED000F894DEBF0FBECDBFED010895CF93DF9321
:101EE000BC018230910510F462E070E0A091A8047A
:101EF000B091A904ED01E0E0F0E040E050E021C045
:101F0000888199818617970769F48A819B81309728
:101F100019F09383828304C09093A9048093A8044A
:101F2000FE0134C06817790738F44115510519F0DE
:101F30008417950708F4AC01FE018A819B819C01FE
:101F4000E9012097E9F641155105A9F1CA01861B5F
:101F5000970B049708F4BA01E0E0F0E02AC08D91F5
:101F60009C91119784179507F9F46417750781F40C
:101F700012968D919C911397309719F093838283D9
:101F800004C09093A9048093A804FD0132964FC029
:101F9000CA01861B970BFD01E80FF91F619371932E
:101FA00002978D939C9343C0FD01828193819C0194
:101FB000D9011097A1F68091A6049091A704892BCE
:101FC00041F48091E5039091E6039093A7048093F8
:101FD000A6044091E7035091E8034115510541F4EF
:101FE0004DB75EB78091E3039091E403481B590B12
:101FF0002091A6043091A70424173507B0F4CA0134
:10200000821B930B8617970780F0AB014E5F5F4FE3
:102010008417950750F0420F531F5093A704409325
:10202000A604F9016193719302C0E0E0F0E0CF01F2
:10203000DF91CF910895CF93DF93009709F450C0BB
:10204000EC0122971B821A82A091A804B091A904E6
:10205000109709F140E050E0AC17BD0708F1BB83D1
:10206000AA83FE0121913191E20FF31FAE17BF0742
:1020700079F48D919C911197280F391F2E5F3F4F56
:102080003983288312968D919C9113979B838A8321
:102090004115510571F4D093A904C093A80420C040
:1020A00012968D919C911397AD01009711F0DC0170
:1020B000D3CFFA01D383C28321913191E20FF31F71
:1020C000CE17DF0769F488819981280F391F2E5FA9
:1020D0003F4FFA01318320838A819B8193838283DE
:1020E000DF91CF910895AEE0B0E0E9E7F0E10C9424
:1020F000450F0D891E8986E08C831A8309838FEF33
:102100009FE79E838D839E01275E3F4FCE01019600
:102110006F89788DA9010E9443112F813885020FA4
:10212000131FF80110822E96E4E00C94610F0AD080
:1021300029ED3BE54EED5EE314C90EF087C394C371
:1021400068947EC3E0D3C8F39923D1F3C6F3DF9339
:10215000CF931F930F93FF92C92FDD2788232AF077
:102160002197660F771F881FDAF720E030E040E8FC
:102170005FEB9FE3883920F0803E30F021968F7727
:10218000C3D8E8E6F0E003C0BFD8E5E9F0E06FD3DC
:102190008B01BE01EC01FB2E6F5771097595771FFE
:1021A000880B990B44DB28E132E741E35FE314D06D
:1021B000AF2D9801AE01FF900F911F91CF91DF914C
:1021C000ECD288C379D328F07ED318F0952309F098
:1021D00037C34AC31124B2C38ED3A0F3959FD1F362
:1021E000950F50E0551F629FF001729FBB27F00DC5
:1021F000B11D639FAA27F00DB11DAA1F649F66271A
:10220000B00DA11D661F829F2227B00DA11D621F68
:10221000739FB00DA11D621F839FA00D611D221F22
:10222000749F3327A00D611D231F849F600D211D06
:10223000822F762F6A2F11249F5750408AF0E1F0A9
:1022400088234AF0EE0FFF1FBB1F661F771F881FF2
:1022500091505040A9F79E3F510570F0F1C26EC3F6
:102260005F3FECF3983EDCF3869577956795B795DD
:10227000F795E7959F5FC1F7FE2B880F911D969507
:10228000879597F90895ABE0B0E0E9E4F1E10C94AB
:10229000370F3C012B015A01FC0117821682838102
:1022A00081FD03C06FEF7FEFC6C19AE0892E1E014A
:1022B0000894211C311CF3012381F20123FD859137
:1022C00023FF81912F01882309F4B2C1853239F4AB
:1022D00023FD859123FF81912F01853229F490E020
:1022E000B3010E943613E7CF982FFF24EE249924E0
:1022F000FFE1FF15D0F09B3269F09C3228F4903258
:1023000059F0933291F40EC09D3249F0903369F444
:1023100041E024C052E0F52A84E0F82A28C098E081
:10232000F92A25C0E0E1FE2A22C0F7FC29C0892F46
:1023300080538A3070F4F6FE05C0989C902C1124CE
:10234000980E15C0E89CE02C1124E80EF0E2FF2A5C
:102350000EC09E3229F4F6FC6BC140E4F42A07C09B
:102360009C3619F450E8F52A02C0983649F4F20177
:1023700023FD959123FF91912F01992309F0B8CF67
:10238000892F8554833018F08052833038F444E02C
:1023900050E0A40EB51E5FE359830FC0933631F0B1
:1023A000933779F0933509F056C020C0F50180814C
:1023B000898342E050E0A40EB51E610101E010E007
:1023C00012C0F501C080D180F6FC03C06FEF7FEF33
:1023D00002C0692D70E042E050E0A40EB51EC601B7
:1023E0000E942B138C015FE7F52214C0F501C08019
:1023F000D180F6FC03C06FEF7FEF02C0692D70E063
:1024000042E050E0A40EB51EC6010E9420138C01CC
:1024100050E8F52AF3FE07C01AC080E290E0B3014D
:102420000E943613EA948E2D90E008171907A8F33E
:102430000EC0F601F7FC8591F7FE81916F0190E0E7
:10244000B3010E943613E110EA94015010400115C7
:10245000110579F7EAC0943611F0993669F5F7FE5F
:1024600008C0F501208131814281538184E090E0F0
:102470000AC0F501808191819C01442737FD409578
:10248000542F82E090E0A80EB91E9FE6F92257FF74
:1024900009C050954095309521953F4F4F4F5F4F64
:1024A000E0E8FE2ACA01B901A1012AE030E00E9459
:1024B0006213D82ED21840C0953729F41F2D1F7EE5
:1024C0002AE030E01DC01F2D197F9F3661F0903744
:1024D00020F4983509F0ACC00FC0903739F0983728
:1024E00009F0A6C004C028E030E00AC0106114FD65
:1024F000146020E130E004C014FD166020E132E0F9
:1025000017FF08C0F501608171818281938144E0E9
:1025100050E008C0F50180819181BC0180E090E02D
:1025200042E050E0A40EB51EA1010E946213D82E15
:10253000D2188FE7F82EF122F6FE0BC05EEFF522DF
:10254000D91438F4F4FE07C0F2FC05C08FEEF8226F
:1025500002C01D2D01C0192DF4FE0DC0FE01ED0DB0
:10256000F11D8081803319F499EEF92208C01F5FB4
:10257000F2FE05C003C08F2D867809F01F5F0F2D76
:10258000F3FC14C0F0FE0FC01E1510F09D2C0BC004
:102590009D2C9E0C911A1E2D06C080E290E0B30186
:1025A0000E9436131F5F1E15C0F304C01E1510F4E1
:1025B000E11A01C0EE2404FF0FC080E390E0B301F4
:1025C0000E94361302FF1DC001FD03C088E790E0A2
:1025D0000EC088E590E00BC0802F867891F001FF57
:1025E00002C08BE201C080E2F7FC8DE290E0B30113
:1025F0000E94361306C080E390E0B3010E943613B8
:102600009A94D914C0F3DA94F101ED0DF11D808193
:1026100090E0B3010E943613DD20A9F706C080E2E6
:1026200090E0B3010E943613EA94EE20C1F743CE46
:10263000F30166817781CB012B96E2E10C94530F75
:10264000FC010590615070400110D8F7809590957D
:102650008E0F9F1F0895FC01615070400190011082
:10266000D8F7809590958E0F9F1F08950F931F9315
:10267000CF93DF938C01EB018B8181FF1BC082FF25
:102680000DC02E813F818C819D812817390764F40C
:10269000E881F9810193F983E88306C0E885F9852B
:1026A000802F0995892B31F48E819F8101969F831C
:1026B0008E8302C00FEF1FEFC801DF91CF911F91F2
:1026C0000F910895FA01AA27283051F1203181F1A4
:1026D000E8946F936E7F6E5F7F4F8F4F9F4FAF4F2A
:1026E000B1E03ED0B4E03CD0670F781F891F9A1F3D
:1026F000A11D680F791F8A1F911DA11D6A0F711DF1
:10270000811D911DA11D20D009F468943F912AE0FC
:10271000269F11243019305D3193DEF6CF010895E4
:10272000462F4770405D4193B3E00FD0C9F7F6CF15
:10273000462F4F70405D4A3318F0495D31FD4052DD
:10274000419302D0A9F7EACFB4E0A6959795879573
:1027500077956795BA95C9F7009761057105089552
:102760009B01AC010A2E06945795479537952795FE
:10277000BA95C9F7620F731F841F951FA01D089596
:102780009BD030F0A0D020F031F49F3F11F41EF424
:102790006BC00EF4E095E7FB53C0E92FACD080F39B
:1027A000BA17620773078407950718F071F49EF54E
:1027B000C4C00EF4E0950B2EBA2FA02D0B01B90169
:1027C00090010C01CA01A0011124FF27591B99F0A7
:1027D000593F50F4503E68F11A16F040A22F232FB3
:1027E000342F4427585FF3CF469537952795A79503
:1027F000F0405395C9F77EF41F16BA0B620B730BAA
:10280000840BBAF09150A1F0FF0FBB1F661F771F1A
:10281000881FC2F70EC0BA0F621F731F841F48F4CF
:10282000879577956795B795F7959E3F08F0B3CF55
:102830009395880F08F09927EE0F9795879508953F
:1028400097F99F6780E870E060E008959F3F31F05E
:10285000915020F4879577956795B795880F911DCE
:102860009695879597F908959FEF80EC0895DF93EB
:10287000CF931F930F93FF92EF92DF927B018C0116
:10288000689405C0DA2EEF01A7DCFE01E894A5915B
:102890002591359145915591AEF3EF017EDFFE0113
:1028A0009701A801DA9479F7DF90EF90FF900F91EC
:1028B0001F91CF91DF91089500240A9416161706F0
:1028C00018060906089500240A9412161306140621
:1028D00005060895092E0394000C11F4882352F084
:1028E000BB0F40F4BF2B11F460FF04C06F5F7F4F3C
:1028F0008F4F9F4F089557FD9058440F551F59F023
:102900005F3F71F04795880F97FB991F61F09F3FDC
:1029100079F087950895121613061406551FF2CF05
:102920004695F1DF08C0161617061806991FF1CF55
:1029300086957105610508940895E894BB2766277C
:0C2940007727CB0197F90895F894FFCF9A
:10294C00256400496E76616C696420636F6D6D61FE
:10295C006E642C2074727920616761696E2E000A96
:10296C000D00456E74657220612063757272656E20
:10297C00742073657420706F696E743A2000312076
:10298C002D203132300032202D20313030003320D8
:10299C002D2037350056657269667920746861742C
:1029AC002074686520636F6E746163746F7273203A
:1029BC006861766520636C6F7365642E0053454EB9
:1029CC0044204120434F4D4D414E440031202D2099
:1029DC004348415247450032202D20434F4E54412D
:1029EC0043544F5220544553540033202D2052450C
:1029FC0053495354495645204C4F41442054455358
:102A0C00540034202D2046554C4C205448524F54E1
:102A1C00544C45204F50454E204349524355495440
:102A2C0020544553540047454E455241544F522073
:102A3C004348415247455220434F4E54524F4C4C01
:102A4C00455220524553455400596F7520656E749C
:102A5C00657265643A20003D3D2053595354454DF1
:102A6C002044415441203D3D005741524D5550208A
:102A7C00434F554E543A200043686172676572208B
:102A8C0053746174653A20004F4646005741524DCD
:102A9C00494E47205550005448524F54544C494EBF
:102AAC004720444F574E004348415247494E470038
:102ABC004641554C540043484152474520434F4DE5
:102ACC00504C4554450052504D3A200043555252FB
:102ADC00454E542041444320434F44453A20005630
:102AEC004F4C544147452041444320434F44453AC1
:102AFC002000434F4E54524F4C4C45445F434F4D76
:102B0C004D414E443A200043555252454E542053A9
:102B1C00455420504F494E543A200000000000000C
:102B2C000000000001020203030303040404040474
:102B3C00040404050505050505050505050505053C
:102B4C00050505060606060606060606060606061C
:102B5C000606060606060606060606060606060609
:102B6C0006060607070707070707070707070707EC
:102B7C0007070707070707070707070707070707D9
:102B8C0007070707070707070707070707070707C9
:102B9C0007070707070707070707070707070707B9
:102BAC00070707080808080808080808080808089C
:102BBC000808080808080808080808080808080889
:102BCC000808080808080808080808080808080879
:102BDC000808080808080808080808080808080869
:102BEC000808080808080808080808080808080859
:102BFC000808080808080808080808080808080849
:102C0C000808080808080808080808080808080838
:102C1C000808080808080808080808080808080828
:0A2C2C000808082000AA04000000B8
:00000001FF
